:020000040000FA
:060000003AEF02F01200CD
:020006000000F8
:0600080024EF01F01200DC
:02000E00D9CF48
:10001000E6FFE1CFD9FF8294FE0EDB380F0B0F0B0A
:10002000836E82968284020EE66E77D8E5528294C1
:10003000FE0EDB500F0B836E8284020EE66E6DD8CF
:10004000E5528294E552E7CFD9FF1200D9CFE6FFFF
:10005000E1CFD9FF8294FE0EDB380F0B0F0B836EBE
:1000600082868284020EE66E58D8E5528294FE0E95
:10007000DB500F0B836E82868284020EE66E4DD8B3
:10008000E5528294E552E7CFD9FF1200829682941E
:10009000030E836E280EE66E40D8E5528284829469
:1000A000050EE66E3AD8E55282848294050EE66E1D
:1000B00034D8E55282848294020EE66E2ED8E55240
:1000C000020E836E82848294280EE66EA0DFE552D3
:1000D000FA0EE66E22D8E5520E0EE66E98DFE55275
:1000E000FA0EE66E1AD8E552010EE66E90DFE55282
:1000F000FA0EE66E12D8E552060EE66E88DFE5527D
:10010000FA0EE66E0AD8E552800EE66E80DFE55202
:10011000FA0EE66E02D8E5521200D9CFE6FFE1CF23
:10012000D9FFE652FE0EDB50010809E2DF6ADF501C
:100130006E0802E3DF2AFBD7FE0EDB06F3D7E5529B
:10014000E552E7CFD9FF1200D9CFE6FFE1CFD9FFC3
:10015000280EF36EFE0EDBCFF4FFF350F45C0CE2DE
:10016000FD0EDB5002E0FE0EDB8CFE0EDB8EFE0E83
:10017000DBCFE6FF4CDFE552E552E7CFD9FF1200B7
:10018000D9CFE6FFE1CFD9FF080EE66E40DFE5529A
:10019000FD0EDBCFF6FFFE0EDBCFF7FF0800F550BC
:1001A0000FE0FD0EDBCFF6FFDB2AFE0EDBCFF7FF05
:1001B00001E3DB2A0800F550E66E48DFE552E8D798
:1001C0000E0EE66E24DFE552E552E7CFD9FF1200AE
:1001D000010EE66E1CDFE5521200D9CFE6FFE1CF3B
:1001E000D9FF640E106E10C00CF0FE0EDBCF07F0CE
:1001F00048EC02F00750300FE66E28DFE5520A0E99
:10020000116E106E10C00CF0FE0EDBCF07F048EC44
:1002100002F011C00CF048EC02F00350300FE66E13
:1002200015DFE5520A0E106E10C00CF0FE0EDBCF8B
:1002300007F048EC02F00350300FE66E07DFE5529E
:08024000E552E7CFD9FF1200DF
:08024800DACFE4FFE2CFDAFF98
:10025000E9CFE4FFEACFE4FFF6CFE4FFF7CFE4FF16
:10026000F5CFE4FFF3CFE4FFF4CFE4FFFACFE4FFF0
:1002700000EE00F0100EE80403E3EECFE4FFFBD73E
:1002800000EE10F0020EE80403E3EECFE4FFFBD72C
:10029000E652F2B03DD8E55200EE11F0020EE8044D
:1002A00003E3E5CFEDFFFBD700EE0FF0100EE804FF
:1002B00003E3E5CFEDFFFBD7E5CFFAFFE5CFF4FF92
:1002C000E5CFF3FFE5CFF5FFE5CFF7FFE5CFF6FF8D
:1002D000E5CFEAFFE5CFE9FFE5CFDAFF1100956A48
:1002E000946A9388938A46EC00F0AC0EE66E040E96
:1002F000E66EC0EC00F0E552E5526AC0E6FFEDECB8
:1003000000F0E552F19EF290F286F28EFFD71200D5
:10031000D9CFE6FFE1CFD9FFE652050EE66E1AEC23
:1003200002F0E5528A50100B01E0010E106E8A5067
:10033000200B01E0010EE8241010DF6E00016B516C
:1003400020E1DF040EE16A07E66A080EE66EA4EC1F
:1003500000F0E552E5526AC0E6FFEDEC00F0E55230
:1003600010D0020EDF5C0DE16A2BE66A080EE66E25
:10037000A4EC00F0E552E5526AC0E6FFEDEC00F0B7
:10038000E552DFCF6BF08150816EF290E552E5527D
:06039000E7CFD9FF1200C7
:0A039600060EF66E000EF76E000E64
:1003A000F86E00010900F550656F0900F550666FA1
:1003B00003E1656701D03DD00900F550606F090089
:1003C000F550616F0900F550626F09000900F550A2
:1003D000E96E0900F550EA6E090009000900F550C0
:1003E000636F0900F550646F09000900F6CF67F0EC
:1003F000F7CF68F0F8CF69F060C0F6FF61C0F7FF93
:1004000062C0F8FF0001635302E1645307E0090092
:10041000F550EE6E6307F8E26407F9D767C0F6FFA0
:1004200068C0F7FF69C0F8FF00016507000E665B52
:04043000BFD7120020
:0C043400FF0EE350126E480E01D04C0E7B
:10044000E76EE72EFED7E76AE72EFED7122EF7D724
:040450000000120096
:0C045400000EF36E00EE00F0060E01D862
:100460001200EA6002D0EE6AFCD7F350E960120095
:04047000EE6AFCD75D
:0C04740015EE00F025EE00F0F86A0F9C79
:10048000CBEC01F05BEC02F06FEC01F0FBD712005B
:10049000036A080EE76ED890073603360C50035CEB
:0C04A00002E3036E072AE72EF7D71200D4
:0404AC00436F756EB7
:0504B00074203D200056
:0204B600120032
:020000040030CA
:0100010022DC
:0100020009F4
:010003000EEE
:010006008079
:00000001FF
